{
  "contractName": "dex",
  "abi": [
    {
      "inputs": [
        {
          "internalType": "contract IERC20",
          "name": "token_",
          "type": "address"
        }
      ],
      "stateMutability": "nonpayable",
      "type": "constructor"
    },
    {
      "anonymous": false,
      "inputs": [
        {
          "indexed": true,
          "internalType": "address",
          "name": "address_",
          "type": "address"
        },
        {
          "indexed": false,
          "internalType": "uint256",
          "name": "amount_",
          "type": "uint256"
        },
        {
          "indexed": false,
          "internalType": "uint256",
          "name": "idGame",
          "type": "uint256"
        }
      ],
      "name": "ClaimWithDraw",
      "type": "event"
    },
    {
      "anonymous": false,
      "inputs": [
        {
          "indexed": true,
          "internalType": "address",
          "name": "address_",
          "type": "address"
        },
        {
          "indexed": false,
          "internalType": "uint256",
          "name": "amount_",
          "type": "uint256"
        },
        {
          "indexed": false,
          "internalType": "uint256",
          "name": "idGame",
          "type": "uint256"
        }
      ],
      "name": "Deposit",
      "type": "event"
    },
    {
      "anonymous": false,
      "inputs": [
        {
          "indexed": true,
          "internalType": "address",
          "name": "address_",
          "type": "address"
        },
        {
          "indexed": false,
          "internalType": "uint256",
          "name": "amount_",
          "type": "uint256"
        }
      ],
      "name": "Withdraw",
      "type": "event"
    },
    {
      "inputs": [
        {
          "internalType": "address",
          "name": "account",
          "type": "address"
        }
      ],
      "name": "setPermission",
      "outputs": [],
      "stateMutability": "nonpayable",
      "type": "function"
    },
    {
      "inputs": [
        {
          "internalType": "address",
          "name": "account",
          "type": "address"
        }
      ],
      "name": "delPermission",
      "outputs": [],
      "stateMutability": "nonpayable",
      "type": "function"
    },
    {
      "inputs": [
        {
          "internalType": "address",
          "name": "account",
          "type": "address"
        }
      ],
      "name": "isSetPermission",
      "outputs": [
        {
          "internalType": "bool",
          "name": "",
          "type": "bool"
        }
      ],
      "stateMutability": "nonpayable",
      "type": "function"
    },
    {
      "inputs": [
        {
          "internalType": "uint256",
          "name": "amount_",
          "type": "uint256"
        }
      ],
      "name": "withdraw",
      "outputs": [],
      "stateMutability": "nonpayable",
      "type": "function"
    },
    {
      "inputs": [
        {
          "internalType": "address",
          "name": "spender_",
          "type": "address"
        },
        {
          "internalType": "uint256",
          "name": "amount_",
          "type": "uint256"
        },
        {
          "internalType": "uint256",
          "name": "idGame",
          "type": "uint256"
        }
      ],
      "name": "claimWithdraw",
      "outputs": [],
      "stateMutability": "nonpayable",
      "type": "function"
    },
    {
      "inputs": [
        {
          "internalType": "uint256",
          "name": "amount_",
          "type": "uint256"
        },
        {
          "internalType": "uint256",
          "name": "idGame",
          "type": "uint256"
        }
      ],
      "name": "deposit",
      "outputs": [],
      "stateMutability": "nonpayable",
      "type": "function"
    }
  ],
  "bytecode": "0x60806040523480156200001157600080fd5b50604051620015ad380380620015ad833981810160405281019062000037919062000195565b806000806101000a81548173ffffffffffffffffffffffffffffffffffffffff021916908373ffffffffffffffffffffffffffffffffffffffff16021790555033600160006101000a81548173ffffffffffffffffffffffffffffffffffffffff021916908373ffffffffffffffffffffffffffffffffffffffff1602179055506001600260003373ffffffffffffffffffffffffffffffffffffffff1673ffffffffffffffffffffffffffffffffffffffff16815260200190815260200160002060006101000a81548160ff02191690831515021790555050620001c7565b600080fd5b600073ffffffffffffffffffffffffffffffffffffffff82169050919050565b600062000149826200011c565b9050919050565b60006200015d826200013c565b9050919050565b6200016f8162000150565b81146200017b57600080fd5b50565b6000815190506200018f8162000164565b92915050565b600060208284031215620001ae57620001ad62000117565b5b6000620001be848285016200017e565b91505092915050565b6113d680620001d76000396000f3fe608060405234801561001057600080fd5b50600436106100625760003560e01c80632e1a7d4d14610067578063b1af99cf14610083578063b85a35d21461009f578063be60a47e146100bb578063d9b77b3a146100d7578063e2bbb15814610107575b600080fd5b610081600480360381019061007c9190610cc4565b610123565b005b61009d60048036038101906100989190610d4f565b6103c4565b005b6100b960048036038101906100b49190610d4f565b610516565b005b6100d560048036038101906100d09190610d7c565b610671565b005b6100f160048036038101906100ec9190610d4f565b610916565b6040516100fe9190610dea565b60405180910390f35b610121600480360381019061011c9190610e05565b6109db565b005b600260003373ffffffffffffffffffffffffffffffffffffffff1673ffffffffffffffffffffffffffffffffffffffff16815260200190815260200160002060009054906101000a900460ff166101af576040517f08c379a00000000000000000000000000000000000000000000000000000000081526004016101a690610ea2565b60405180910390fd5b600081116101f2576040517f08c379a00000000000000000000000000000000000000000000000000000000081526004016101e990610f0e565b60405180910390fd5b60008060009054906101000a900473ffffffffffffffffffffffffffffffffffffffff1673ffffffffffffffffffffffffffffffffffffffff166370a08231306040518263ffffffff1660e01b815260040161024e9190610f3d565b602060405180830381865afa15801561026b573d6000803e3d6000fd5b505050506040513d601f19601f8201168201806040525081019061028f9190610f6d565b90508082106102d3576040517f08c379a00000000000000000000000000000000000000000000000000000000081526004016102ca9061100c565b60405180910390fd5b60008054906101000a900473ffffffffffffffffffffffffffffffffffffffff1673ffffffffffffffffffffffffffffffffffffffff1663a9059cbb33846040518363ffffffff1660e01b815260040161032e92919061103b565b6020604051808303816000875af115801561034d573d6000803e3d6000fd5b505050506040513d601f19601f820116820180604052508101906103719190611090565b503373ffffffffffffffffffffffffffffffffffffffff167f884edad9ce6fa2440d8a54cc123490eb96d2768479d49ff9c7366125a9424364836040516103b891906110bd565b60405180910390a25050565b3373ffffffffffffffffffffffffffffffffffffffff16600160009054906101000a900473ffffffffffffffffffffffffffffffffffffffff1673ffffffffffffffffffffffffffffffffffffffff1614610454576040517f08c379a000000000000000000000000000000000000000000000000000000000815260040161044b90611124565b60405180910390fd5b600073ffffffffffffffffffffffffffffffffffffffff168173ffffffffffffffffffffffffffffffffffffffff1614156104c4576040517f08c379a00000000000000000000000000000000000000000000000000000000081526004016104bb906111b6565b60405180910390fd5b600260008273ffffffffffffffffffffffffffffffffffffffff1673ffffffffffffffffffffffffffffffffffffffff16815260200190815260200160002060006101000a81549060ff021916905550565b3373ffffffffffffffffffffffffffffffffffffffff16600160009054906101000a900473ffffffffffffffffffffffffffffffffffffffff1673ffffffffffffffffffffffffffffffffffffffff16146105a6576040517f08c379a000000000000000000000000000000000000000000000000000000000815260040161059d90611124565b60405180910390fd5b600073ffffffffffffffffffffffffffffffffffffffff168173ffffffffffffffffffffffffffffffffffffffff161415610616576040517f08c379a000000000000000000000000000000000000000000000000000000000815260040161060d906111b6565b60405180910390fd5b6001600260008373ffffffffffffffffffffffffffffffffffffffff1673ffffffffffffffffffffffffffffffffffffffff16815260200190815260200160002060006101000a81548160ff02191690831515021790555050565b600260003373ffffffffffffffffffffffffffffffffffffffff1673ffffffffffffffffffffffffffffffffffffffff16815260200190815260200160002060009054906101000a900460ff166106fd576040517f08c379a00000000000000000000000000000000000000000000000000000000081526004016106f490610ea2565b60405180910390fd5b60008211610740576040517f08c379a000000000000000000000000000000000000000000000000000000000815260040161073790610f0e565b60405180910390fd5b60008060009054906101000a900473ffffffffffffffffffffffffffffffffffffffff1673ffffffffffffffffffffffffffffffffffffffff166370a08231306040518263ffffffff1660e01b815260040161079c9190610f3d565b602060405180830381865afa1580156107b9573d6000803e3d6000fd5b505050506040513d601f19601f820116820180604052508101906107dd9190610f6d565b9050808310610821576040517f08c379a000000000000000000000000000000000000000000000000000000000815260040161081890611248565b60405180910390fd5b60008054906101000a900473ffffffffffffffffffffffffffffffffffffffff1673ffffffffffffffffffffffffffffffffffffffff1663a9059cbb85856040518363ffffffff1660e01b815260040161087c92919061103b565b6020604051808303816000875af115801561089b573d6000803e3d6000fd5b505050506040513d601f19601f820116820180604052508101906108bf9190611090565b508373ffffffffffffffffffffffffffffffffffffffff167f2ea39f2624fcbc32661f762c156dc3c2b2b7f854d1a5a3988184ac99ba81b0d98484604051610908929190611268565b60405180910390a250505050565b60008073ffffffffffffffffffffffffffffffffffffffff168273ffffffffffffffffffffffffffffffffffffffff161415610987576040517f08c379a000000000000000000000000000000000000000000000000000000000815260040161097e906111b6565b60405180910390fd5b600260008373ffffffffffffffffffffffffffffffffffffffff1673ffffffffffffffffffffffffffffffffffffffff16815260200190815260200160002060009054906101000a900460ff169050919050565b60011515600260003373ffffffffffffffffffffffffffffffffffffffff1673ffffffffffffffffffffffffffffffffffffffff16815260200190815260200160002060009054906101000a900460ff1615151415610a6f576040517f08c379a0000000000000000000000000000000000000000000000000000000008152600401610a66906112dd565b60405180910390fd5b60008211610ab2576040517f08c379a0000000000000000000000000000000000000000000000000000000008152600401610aa990610f0e565b60405180910390fd5b60008060009054906101000a900473ffffffffffffffffffffffffffffffffffffffff1673ffffffffffffffffffffffffffffffffffffffff166370a08231336040518263ffffffff1660e01b8152600401610b0e9190610f3d565b602060405180830381865afa158015610b2b573d6000803e3d6000fd5b505050506040513d601f19601f82011682018060405250810190610b4f9190610f6d565b9050808310610b93576040517f08c379a0000000000000000000000000000000000000000000000000000000008152600401610b8a90611349565b60405180910390fd5b60008054906101000a900473ffffffffffffffffffffffffffffffffffffffff1673ffffffffffffffffffffffffffffffffffffffff166323b872dd3330866040518463ffffffff1660e01b8152600401610bf093929190611369565b6020604051808303816000875af1158015610c0f573d6000803e3d6000fd5b505050506040513d601f19601f82011682018060405250810190610c339190611090565b503373ffffffffffffffffffffffffffffffffffffffff167f90890809c654f11d6e72a28fa60149770a0d11ec6c92319d6ceb2bb0a4ea1a158484604051610c7c929190611268565b60405180910390a2505050565b600080fd5b6000819050919050565b610ca181610c8e565b8114610cac57600080fd5b50565b600081359050610cbe81610c98565b92915050565b600060208284031215610cda57610cd9610c89565b5b6000610ce884828501610caf565b91505092915050565b600073ffffffffffffffffffffffffffffffffffffffff82169050919050565b6000610d1c82610cf1565b9050919050565b610d2c81610d11565b8114610d3757600080fd5b50565b600081359050610d4981610d23565b92915050565b600060208284031215610d6557610d64610c89565b5b6000610d7384828501610d3a565b91505092915050565b600080600060608486031215610d9557610d94610c89565b5b6000610da386828701610d3a565b9350506020610db486828701610caf565b9250506040610dc586828701610caf565b9150509250925092565b60008115159050919050565b610de481610dcf565b82525050565b6000602082019050610dff6000830184610ddb565b92915050565b60008060408385031215610e1c57610e1b610c89565b5b6000610e2a85828601610caf565b9250506020610e3b85828601610caf565b9150509250929050565b600082825260208201905092915050565b7f596f75277265206e6f74204f776e657200000000000000000000000000000000600082015250565b6000610e8c601083610e45565b9150610e9782610e56565b602082019050919050565b60006020820190508181036000830152610ebb81610e7f565b9050919050565b7f416d6f756e742069732020677261746572207468616e20300000000000000000600082015250565b6000610ef8601883610e45565b9150610f0382610ec2565b602082019050919050565b60006020820190508181036000830152610f2781610eeb565b9050919050565b610f3781610d11565b82525050565b6000602082019050610f526000830184610f2e565b92915050565b600081519050610f6781610c98565b92915050565b600060208284031215610f8357610f82610c89565b5b6000610f9184828501610f58565b91505092915050565b7f416d6f756e742069732067726561746572207468616e20746f74616c20416d6f60008201527f756e74206f6620534d0000000000000000000000000000000000000000000000602082015250565b6000610ff6602983610e45565b915061100182610f9a565b604082019050919050565b6000602082019050818103600083015261102581610fe9565b9050919050565b61103581610c8e565b82525050565b60006040820190506110506000830185610f2e565b61105d602083018461102c565b9392505050565b61106d81610dcf565b811461107857600080fd5b50565b60008151905061108a81611064565b92915050565b6000602082840312156110a6576110a5610c89565b5b60006110b48482850161107b565b91505092915050565b60006020820190506110d2600083018461102c565b92915050565b7f596f75277265206e6f742061646d696e00000000000000000000000000000000600082015250565b600061110e601083610e45565b9150611119826110d8565b602082019050919050565b6000602082019050818103600083015261113d81611101565b9050919050565b7f4f776e65722069732072657175697265642061646472657373206e6f74207a6560008201527f726f000000000000000000000000000000000000000000000000000000000000602082015250565b60006111a0602283610e45565b91506111ab82611144565b604082019050919050565b600060208201905081810360008301526111cf81611193565b9050919050565b7f416d6f756e74206973206c657373207468616e20746f74616c20416d6f756e7460008201527f206f6620534d0000000000000000000000000000000000000000000000000000602082015250565b6000611232602683610e45565b915061123d826111d6565b604082019050919050565b6000602082019050818103600083015261126181611225565b9050919050565b600060408201905061127d600083018561102c565b61128a602083018461102c565b9392505050565b7f4f6e6c7920757365722075736520746869732066756e6374696f6e2100000000600082015250565b60006112c7601c83610e45565b91506112d282611291565b602082019050919050565b600060208201905081810360008301526112f6816112ba565b9050919050565b7f596f757220416d6f756e74206973206e6f7420656e6f75676874000000000000600082015250565b6000611333601a83610e45565b915061133e826112fd565b602082019050919050565b6000602082019050818103600083015261136281611326565b9050919050565b600060608201905061137e6000830186610f2e565b61138b6020830185610f2e565b611398604083018461102c565b94935050505056fea2646970667358221220a12ad8b16b5067faae07a1ffb4df63402b9d3ffbf9351d1654b22cdf5890adf364736f6c634300080b0033",
  "immutableReferences": {},
  "source": "// SPDX-License-Identifier: MIT\n\npragma solidity ^0.8.0;\n\nimport \"@openzeppelin/contracts/token/ERC20/IERC20.sol\";\n\ncontract dex {\n    IERC20 private _token;\n    address private _admin;\n    mapping(address => bool) private addressToPermission;\n\n    event Withdraw(address indexed address_, uint256 amount_);\n    event ClaimWithDraw(\n        address indexed address_,\n        uint256 amount_,\n        uint256 idGame\n    );\n    event Deposit(address indexed address_, uint256 amount_, uint256 idGame);\n\n    constructor(IERC20 token_) {\n        _token = token_;\n        _admin = msg.sender;\n        addressToPermission[msg.sender] = true;\n    }\n\n    function setPermission(address account) external isAdmin {\n        require(account != address(0), \"Owner is required address not zero\");\n        addressToPermission[account] = true;\n    }\n\n    function delPermission(address account) external isAdmin {\n        require(account != address(0), \"Owner is required address not zero\");\n        delete addressToPermission[account];\n    }\n\n    function isSetPermission(address account) external returns (bool) {\n        require(account != address(0), \"Owner is required address not zero\");\n        return addressToPermission[account];\n    }\n\n    function withdraw(uint256 amount_) public isOwner {\n        require(amount_ > 0, \"Amount is  grater than 0\");\n        uint256 totalAmount = _token.balanceOf(address(this));\n        require(\n            amount_ < totalAmount,\n            \"Amount is greater than total Amount of SM\"\n        );\n        _token.transfer(msg.sender, amount_);\n        emit Withdraw(msg.sender, amount_);\n    }\n\n    function claimWithdraw(\n        address spender_,\n        uint256 amount_,\n        uint256 idGame\n    ) public isOwner {\n        require(amount_ > 0, \"Amount is  grater than 0\");\n        uint256 totalAmount = _token.balanceOf(address(this));\n        require(\n            amount_ < totalAmount,\n            \"Amount is less than total Amount of SM\"\n        );\n        _token.transfer(spender_, amount_);\n        emit ClaimWithDraw(spender_, amount_, idGame);\n    }\n\n    function deposit(uint256 amount_, uint256 idGame) public {\n        require(\n            addressToPermission[msg.sender] != true,\n            \"Only user use this function!\"\n        );\n        require(amount_ > 0, \"Amount is  grater than 0\");\n        uint256 userAmount = _token.balanceOf(msg.sender);\n        require(amount_ < userAmount, \"Your Amount is not enought\");\n        _token.transferFrom(msg.sender, address(this), amount_);\n        emit Deposit(msg.sender, amount_, idGame);\n    }\n\n    modifier isOwner() {\n        require(addressToPermission[msg.sender], \"You're not Owner\");\n        _;\n    }\n\n    modifier isAdmin() {\n        require(_admin == msg.sender, \"You're not admin\");\n        _;\n    }\n}\n",
  "sourcePath": "/Users/meomeocoj/code/demo-mortalwars-tokens/mortalwars-tokens/contracts/newDex.sol",
  "compiler": {
    "name": "solc",
    "version": "0.8.11+commit.d7f03943.Emscripten.clang"
  },
  "schemaVersion": "3.4.4",
  "updatedAt": "2022-02-21T09:11:54.888Z",
  "devdoc": {
    "kind": "dev",
    "methods": {},
    "version": 1
  },
  "userdoc": {
    "kind": "user",
    "methods": {},
    "version": 1
  }
}